:040000001DEF00F000
:100008002282F2AA0AEF00F00CEF00F01BEF00F0DA
:10001800F2A411EF00F013EF00F01BEF00F01F0641
:10002800D8A02006F2940B0ED76EDC0ED66E229264
:10003800110010EF02F009C001F00AC002F0000E32
:10004800046E0A0E036EB8EC01F001C00CF002C099
:100058000DF009C001F00AC002F0000E046E0A0E8D
:10006800036E56EC01F001C009F002C00AF009C0A5
:1000780001F00AC002F0000E046E0A0E036EB8EC1E
:1000880001F001C00EF002C00FF009C001F00AC073
:1000980002F0000E046E0A0E036E56EC01F001C069
:1000A80009F002C00AF009C001F00AC002F0000E0F
:1000B800046E0A0E036EB8EC01F001C010F002C025
:1000C80011F009C001F00AC002F0000E046E0A0E19
:1000D800036E56EC01F001C009F002C00AF009C035
:1000E80001F00AC002F0000E046E0A0E036EB8ECAE
:1000F80001F001C012F002C013F08B808D848D8254
:100108008D80150E0C24D96E000E0D20DA6EDF508E
:100118008C6E8B900B0E0B6E620EE82EFED70B2E9C
:10012800FCD700D08B808D848D828D80150E0E2497
:10013800D96E000E0F20DA6EDF508C6E8D940B0E88
:100148000B6E620EE82EFED70B2EFCD700D08B80EC
:100158008D848D828D80150E1024D96E000E11208D
:10016800DA6EDF508C6E8D920B0E0B6E620EE82EDF
:10017800FED70B2EFCD700D08B808D848D828D808E
:10018800150E1224D96E000E1320DA6EDF508C6E15
:100198008D900B0E0B6E620EE82EFED70B2EFCD741
:1001A80000D012004BEC02F028EC02F039EC02F01F
:1001B80054EC02F050EC02F08B808D848D828D809F
:1001C80081B0E9EF00F0EBEF00F0FBEF00F0340E48
:1001D800146EF20EE82EFED7142EFCD781A0F7EF8E
:1001E80000F0F9EF00F0F2EF00F0D58EF28A81B25C
:1001F80000EF01F002EF01F016EF01F0340E146E7B
:10020800F20EE82EFED7142EFCD781A20EEF01F0D5
:1002180010EF01F009EF01F0640E1F241F6E000EAD
:100228002020206E81B41BEF01F01DEF01F031EFAB
:1002380001F0340E146EF20EE82EFED7142EFCD701
:1002480081A429EF01F02BEF01F024EF01F00A0E51
:100258001F241F6E000E2020206E81B636EF01F09D
:1002680038EF01F04CEF01F0340E146EF20EE82E68
:10027800FED7142EFCD781A644EF01F046EF01F01B
:100288003FEF01F0010E1F241F6E000E2020206E8C
:100298001FC009F020C00AF01FEC00F0E4EF00F0E6
:1002A8001DEF00F0000E066E04BE5FEF01F05DEF7B
:1002B80001F065EF01F0036C041ED8B0042A010EAA
:1002C800066E02BE6CEF01F06AEF01F072EF01F00A
:1002D800016C021ED8B0022A010E061A000E086E22
:1002E800000E076E03500410D8B47DEF01F07FEFC5
:1002F80001F0A7EF01F0010E056E87EF01F0D8902D
:1003080003360436052A04AE8CEF01F08EEF01F0B7
:1003180083EF01F0D890073608360350015C04508B
:100328000258D8A09AEF01F09CEF01F0A1EF01F07C
:100338000350015E0450025A0780D89004320332F9
:10034800052E8EEF01F00650D8B4ADEF01F0AFEFF7
:1003580001F0B3EF01F0076C081ED8B0082A07C0F7
:1003680001F008C002F01200000E066E02BEC1EFD6
:1003780001F0BFEF01F0C7EF01F0016C021ED8B029
:10038800022A010E066E04BECEEF01F0CCEF01F09A
:10039800D2EF01F0036C041ED8B0042A03500410F5
:1003A800D8B4D9EF01F0DBEF01F0FFEF01F0010E57
:1003B800056EE3EF01F0D89003360436052A04AE43
:1003C800E8EF01F0EAEF01F0DFEF01F00350015C24
:1003D80004500258D8A0F3EF01F0F5EF01F0F9EF5F
:1003E80001F00350015E0450025AD89004320332DF
:1003F800052EEAEF01F00650D8B405EF02F007EF3A
:1004080002F00BEF02F0016C021ED8B0022A01C004
:1004180001F002C002F012008C0EF66E040EF76EA8
:10042800000EF86E00EE15F010EE0AF00900F5CF98
:10043800EEFFE550E150FAE1216A206A1F6A229036
:1004480022920001D6EF00F0000E0F015E6F000E41
:10045800956E5F915F935F95969096929694000E35
:100468005C6F0F0E936E94901200D59CD59AD5961A
:10047800D550F80B0509D56E0B0ED76EDC0ED66E6F
:10048800F2941200C0F9A4B0999282F88090700E8C
:10049800D312D390D3821200F288F292F19C120008
:0804A800D09EF28EF28C1200CE
:020000040020DA
:08000000FFFFFFFFFFFFFFFF00
:020000040030CA
:0E00000000285E3CFFD385FF0FC00FE00F40CD
:00000001FF
