:040000005EEF00F0BF
:100008002282F2AA0AEF00F00CEF00F02AEF00F0CB
:10001800F2A411EF00F013EF00F02AEF00F01F50E8
:100028002010D8A41AEF00F01CEF00F022EF00F027
:10003800000E206E000E1F6E25EF00F01F06D8A0E0
:100048002006F2940B0ED76EDC0ED66EF2A82FEFB8
:1000580000F031EF00F03BEF00F0F2A236EF00F0D5
:1000680038EF00F03BEF00F01F4A202AF292F0A68A
:1000780040EF00F042EF00F05CEF00F0F0A047EF37
:1000880000F049EF00F05CEF00F01F502010D8A4FA
:1000980050EF00F052EF00F058EF00F0000E206E25
:1000A800000E1F6E5BEF00F01F06D8A02006F09030
:1000B8002292110017EF02F009C001F00AC002F005
:1000C800000E046E0A0E036E79EC01F001C00CF00C
:1000D80002C00DF009C001F00AC002F0000E046E63
:1000E8000A0E036E17EC01F001C009F002C00AF015
:1000F80009C001F00AC002F0000E046E0A0E036E79
:1001080079EC01F001C00EF002C00FF009C001F057
:100118000AC002F0000E046E0A0E036E17EC01F01E
:1001280001C009F002C00AF009C001F00AC002F0DB
:10013800000E046E0A0E036E79EC01F001C010F097
:1001480002C011F009C001F00AC002F0000E046EEE
:100158000A0E036E17EC01F001C009F002C00AF0A4
:1001680009C001F00AC002F0000E046E0A0E036E08
:1001780079EC01F001C012F002C013F08B808D847D
:100188008D828D80150E0C24D96E000E0D20DA6E2E
:10019800DF508C6E8B900B0E0B6E620EE82EFED726
:1001A8000B2EFCD700D08B808D848D828D80150E10
:1001B8000E24D96E000E0F20DA6EDF508C6E8D94EF
:1001C8000B0E0B6E620EE82EFED70B2EFCD700D05E
:1001D8008B808D848D828D80150E1024D96E000E33
:1001E8001120DA6EDF508C6E8D920B0E0B6E620E44
:1001F800E82EFED70B2EFCD700D08B808D848D8205
:100208008D80150E1224D96E000E1320DA6EDF5081
:100218008C6E8D900B0E0B6E620EE82EFED70B2E99
:10022800FCD700D01200000E066E04BE20EF01F0CD
:100238001EEF01F026EF01F0036C041ED8B0042A6B
:10024800010E066E02BE2DEF01F02BEF01F033EF29
:1002580001F0016C021ED8B0022A010E061A000E27
:10026800086E000E076E03500410D8B43EEF01F07C
:1002780040EF01F068EF01F0010E056E48EF01F064
:10028800D89003360436052A04AE4DEF01F04FEF3F
:1002980001F044EF01F0D890073608360350015CAE
:1002A80004500258D8A05BEF01F05DEF01F062EF57
:1002B80001F00350015E0450025A0780D8900432BE
:1002C8000332052E4FEF01F00650D8B46EEF01F05F
:1002D80070EF01F074EF01F0076C081ED8B0082A1F
:1002E80007C001F008C002F01200000E066E02BE40
:1002F80082EF01F080EF01F088EF01F0016C021E3F
:10030800D8B0022A010E066E04BE8FEF01F08DEF01
:1003180001F093EF01F0036C041ED8B0042A0350D7
:100328000410D8B49AEF01F09CEF01F0C0EF01F08F
:10033800010E056EA4EF01F0D89003360436052AA5
:1003480004AEA9EF01F0ABEF01F0A0EF01F003500C
:10035800015C04500258D8A0B4EF01F0B6EF01F0E8
:10036800BAEF01F00350015E0450025AD8900432EB
:100378000332052EABEF01F00650D8B4C6EF01F0FA
:10038800C8EF01F0CCEF01F0016C021ED8B0022AD0
:1003980001C001F002C002F0120059EC02F02FEC8B
:1003A80002F040EC02F05EEC02F04DEC02F08B80C3
:1003B8008D848D828D8081B4E4EF01F0E6EF01F049
:1003C800F6EF01F0340E146EF20EE82EFED7142E5E
:1003D800FCD781A0F2EF01F0F4EF01F0EDEF01F0AE
:1003E800D58EF28A81B6FBEF01F0FDEF01F00DEF3B
:1003F80002F0340E146EF20EE82EFED7142EFCD73F
:1004080081A009EF02F00BEF02F004EF02F0D59E95
:10041800F29A1FC009F020C00AF060EC00F0DFEF8C
:1004280001F05EEF00F0A80EF66E040EF76E000EF7
:10043800F86E00EE15F010EE0AF00900F5CFEEFFA9
:10044800E550E150FAE1216A206A1F6A229022925F
:100458000001D1EF01F0000E0F015E6F000E956EE6
:100468005F915F935F95969096929694000E5C6F5D
:100478000F0E936E94901200D59CD59AD596D550B0
:10048800F80B0509D56E0B0ED76EDC0ED66EF294FE
:100498001200F288F292F19CF086F090F19A120024
:1004A800C0F9A4B0999282F88090700ED312D390BC
:0C04B800D3821200D09EF28EF28C120053
:020000040020DA
:08000000FFFFFFFFFFFFFFFF00
:020000040030CA
:0E00000000285E3CFFD385FF0FC00FE00F40CD
:00000001FF
